{
  "_format": "hh-sol-artifact-1",
  "contractName": "DrugTracking",
  "sourceName": "contracts/DrugTracking.sol",
  "abi": [
    {
      "inputs": [
        {
          "internalType": "address",
          "name": "initialOwner",
          "type": "address"
        }
      ],
      "stateMutability": "nonpayable",
      "type": "constructor"
    },
    {
      "inputs": [
        {
          "internalType": "address",
          "name": "owner",
          "type": "address"
        }
      ],
      "name": "OwnableInvalidOwner",
      "type": "error"
    },
    {
      "inputs": [
        {
          "internalType": "address",
          "name": "account",
          "type": "address"
        }
      ],
      "name": "OwnableUnauthorizedAccount",
      "type": "error"
    },
    {
      "anonymous": false,
      "inputs": [
        {
          "indexed": false,
          "internalType": "string",
          "name": "name",
          "type": "string"
        },
        {
          "indexed": false,
          "internalType": "string",
          "name": "batch",
          "type": "string"
        },
        {
          "indexed": false,
          "internalType": "uint256",
          "name": "quantity",
          "type": "uint256"
        },
        {
          "indexed": false,
          "internalType": "uint256",
          "name": "mfgDate",
          "type": "uint256"
        },
        {
          "indexed": false,
          "internalType": "uint256",
          "name": "expiryDate",
          "type": "uint256"
        },
        {
          "indexed": false,
          "internalType": "string",
          "name": "batchBarcode",
          "type": "string"
        },
        {
          "indexed": false,
          "internalType": "address",
          "name": "manufacturer",
          "type": "address"
        }
      ],
      "name": "DrugCreated",
      "type": "event"
    },
    {
      "anonymous": false,
      "inputs": [
        {
          "indexed": true,
          "internalType": "address",
          "name": "previousOwner",
          "type": "address"
        },
        {
          "indexed": true,
          "internalType": "address",
          "name": "newOwner",
          "type": "address"
        }
      ],
      "name": "OwnershipTransferred",
      "type": "event"
    },
    {
      "inputs": [
        {
          "internalType": "string",
          "name": "_name",
          "type": "string"
        },
        {
          "internalType": "string",
          "name": "_batch",
          "type": "string"
        },
        {
          "internalType": "uint256",
          "name": "_quantity",
          "type": "uint256"
        },
        {
          "internalType": "uint256",
          "name": "_mfgDate",
          "type": "uint256"
        },
        {
          "internalType": "uint256",
          "name": "_expiryDate",
          "type": "uint256"
        },
        {
          "internalType": "string",
          "name": "_batchBarcode",
          "type": "string"
        }
      ],
      "name": "createDrug",
      "outputs": [],
      "stateMutability": "nonpayable",
      "type": "function"
    },
    {
      "inputs": [
        {
          "internalType": "uint256",
          "name": "",
          "type": "uint256"
        }
      ],
      "name": "drugBarcodes",
      "outputs": [
        {
          "internalType": "string",
          "name": "",
          "type": "string"
        }
      ],
      "stateMutability": "view",
      "type": "function"
    },
    {
      "inputs": [
        {
          "internalType": "string",
          "name": "",
          "type": "string"
        }
      ],
      "name": "drugs",
      "outputs": [
        {
          "internalType": "string",
          "name": "name",
          "type": "string"
        },
        {
          "internalType": "string",
          "name": "batch",
          "type": "string"
        },
        {
          "internalType": "uint256",
          "name": "quantity",
          "type": "uint256"
        },
        {
          "internalType": "uint256",
          "name": "mfgDate",
          "type": "uint256"
        },
        {
          "internalType": "uint256",
          "name": "expiryDate",
          "type": "uint256"
        },
        {
          "internalType": "string",
          "name": "batchBarcode",
          "type": "string"
        },
        {
          "internalType": "address",
          "name": "manufacturer",
          "type": "address"
        },
        {
          "internalType": "string",
          "name": "status",
          "type": "string"
        }
      ],
      "stateMutability": "view",
      "type": "function"
    },
    {
      "inputs": [],
      "name": "getAllDrugs",
      "outputs": [
        {
          "internalType": "string[]",
          "name": "",
          "type": "string[]"
        }
      ],
      "stateMutability": "view",
      "type": "function"
    },
    {
      "inputs": [
        {
          "internalType": "string",
          "name": "_barcode",
          "type": "string"
        }
      ],
      "name": "getDrug",
      "outputs": [
        {
          "internalType": "string",
          "name": "",
          "type": "string"
        },
        {
          "internalType": "string",
          "name": "",
          "type": "string"
        },
        {
          "internalType": "uint256",
          "name": "",
          "type": "uint256"
        },
        {
          "internalType": "uint256",
          "name": "",
          "type": "uint256"
        },
        {
          "internalType": "uint256",
          "name": "",
          "type": "uint256"
        },
        {
          "internalType": "string",
          "name": "",
          "type": "string"
        },
        {
          "internalType": "address",
          "name": "",
          "type": "address"
        },
        {
          "internalType": "string",
          "name": "",
          "type": "string"
        }
      ],
      "stateMutability": "view",
      "type": "function"
    },
    {
      "inputs": [],
      "name": "owner",
      "outputs": [
        {
          "internalType": "address",
          "name": "",
          "type": "address"
        }
      ],
      "stateMutability": "view",
      "type": "function"
    },
    {
      "inputs": [],
      "name": "renounceOwnership",
      "outputs": [],
      "stateMutability": "nonpayable",
      "type": "function"
    },
    {
      "inputs": [
        {
          "internalType": "address",
          "name": "newOwner",
          "type": "address"
        }
      ],
      "name": "transferOwnership",
      "outputs": [],
      "stateMutability": "nonpayable",
      "type": "function"
    }
  ],
  "bytecode": "0x60806040523480156200001157600080fd5b5060405162001f1e38038062001f1e8339818101604052810190620000379190620001f4565b80600073ffffffffffffffffffffffffffffffffffffffff168173ffffffffffffffffffffffffffffffffffffffff1603620000ad5760006040517f1e4fbdf7000000000000000000000000000000000000000000000000000000008152600401620000a4919062000237565b60405180910390fd5b620000be81620000c660201b60201c565b505062000254565b60008060009054906101000a900473ffffffffffffffffffffffffffffffffffffffff169050816000806101000a81548173ffffffffffffffffffffffffffffffffffffffff021916908373ffffffffffffffffffffffffffffffffffffffff1602179055508173ffffffffffffffffffffffffffffffffffffffff168173ffffffffffffffffffffffffffffffffffffffff167f8be0079c531659141344cd1fd0a4f28419497f9722a3daafe3b4186f6b6457e060405160405180910390a35050565b600080fd5b600073ffffffffffffffffffffffffffffffffffffffff82169050919050565b6000620001bc826200018f565b9050919050565b620001ce81620001af565b8114620001da57600080fd5b50565b600081519050620001ee81620001c3565b92915050565b6000602082840312156200020d576200020c6200018a565b5b60006200021d84828501620001dd565b91505092915050565b6200023181620001af565b82525050565b60006020820190506200024e600083018462000226565b92915050565b611cba80620002646000396000f3fe608060405234801561001057600080fd5b50600436106100885760003560e01c80638da5cb5b1161005b5780638da5cb5b1461011c57806396a2e0951461013a578063b009493d14610156578063f2fde38b1461018d57610088565b80632d7b669b1461008d5780635425c289146100bd578063715018a6146100db5780637ecd4492146100e5575b600080fd5b6100a760048036038101906100a29190610fc5565b6101a9565b6040516100b49190611082565b60405180910390f35b6100c5610255565b6040516100d291906111b0565b60405180910390f35b6100e361032e565b005b6100ff60048036038101906100fa9190611307565b610342565b6040516101139897969594939291906113a0565b60405180910390f35b6101246106f1565b604051610131919061143a565b60405180910390f35b610154600480360381019061014f9190611455565b61071a565b005b610170600480360381019061016b9190611307565b610b04565b6040516101849897969594939291906113a0565b60405180910390f35b6101a760048036038101906101a29190611562565b610da2565b005b600281815481106101b957600080fd5b9060005260206000200160009150905080546101d4906115be565b80601f0160208091040260200160405190810160405280929190818152602001828054610200906115be565b801561024d5780601f106102225761010080835404028352916020019161024d565b820191906000526020600020905b81548152906001019060200180831161023057829003601f168201915b505050505081565b60606002805480602002602001604051908101604052809291908181526020016000905b82821015610325578382906000526020600020018054610298906115be565b80601f01602080910402602001604051908101604052809291908181526020018280546102c4906115be565b80156103115780601f106102e657610100808354040283529160200191610311565b820191906000526020600020905b8154815290600101906020018083116102f457829003601f168201915b505050505081526020019060010190610279565b50505050905090565b610336610e28565b6103406000610eaf565b565b6060806000806000606060006060600060018a604051610362919061162b565b90815260200160405180910390206040518061010001604052908160008201805461038c906115be565b80601f01602080910402602001604051908101604052809291908181526020018280546103b8906115be565b80156104055780601f106103da57610100808354040283529160200191610405565b820191906000526020600020905b8154815290600101906020018083116103e857829003601f168201915b5050505050815260200160018201805461041e906115be565b80601f016020809104026020016040519081016040528092919081815260200182805461044a906115be565b80156104975780601f1061046c57610100808354040283529160200191610497565b820191906000526020600020905b81548152906001019060200180831161047a57829003601f168201915b505050505081526020016002820154815260200160038201548152602001600482015481526020016005820180546104ce906115be565b80601f01602080910402602001604051908101604052809291908181526020018280546104fa906115be565b80156105475780601f1061051c57610100808354040283529160200191610547565b820191906000526020600020905b81548152906001019060200180831161052a57829003601f168201915b505050505081526020016006820160009054906101000a900473ffffffffffffffffffffffffffffffffffffffff1673ffffffffffffffffffffffffffffffffffffffff1673ffffffffffffffffffffffffffffffffffffffff1681526020016007820180546105b6906115be565b80601f01602080910402602001604051908101604052809291908181526020018280546105e2906115be565b801561062f5780601f106106045761010080835404028352916020019161062f565b820191906000526020600020905b81548152906001019060200180831161061257829003601f168201915b5050505050815250509050600073ffffffffffffffffffffffffffffffffffffffff168160c0015173ffffffffffffffffffffffffffffffffffffffff16036106ad576040517f08c379a00000000000000000000000000000000000000000000000000000000081526004016106a49061168e565b60405180910390fd5b806000015181602001518260400151836060015184608001518560a001518660c001518760e001519850985098509850985098509850985050919395975091939597565b60008060009054906101000a900473ffffffffffffffffffffffffffffffffffffffff16905090565b600086511161075e576040517f08c379a0000000000000000000000000000000000000000000000000000000008152600401610755906116fa565b60405180910390fd5b60008551116107a2576040517f08c379a000000000000000000000000000000000000000000000000000000000815260040161079990611766565b60405180910390fd5b600084116107e5576040517f08c379a00000000000000000000000000000000000000000000000000000000081526004016107dc906117d2565b60405180910390fd5b828211610827576040517f08c379a000000000000000000000000000000000000000000000000000000000815260040161081e90611864565b60405180910390fd5b600081511161086b576040517f08c379a0000000000000000000000000000000000000000000000000000000008152600401610862906118d0565b60405180910390fd5b600073ffffffffffffffffffffffffffffffffffffffff16600182604051610893919061162b565b908152602001604051809103902060060160009054906101000a900473ffffffffffffffffffffffffffffffffffffffff1673ffffffffffffffffffffffffffffffffffffffff161461091b576040517f08c379a000000000000000000000000000000000000000000000000000000000815260040161091290611962565b60405180910390fd5b60006040518061010001604052808881526020018781526020018681526020018581526020018481526020018381526020013373ffffffffffffffffffffffffffffffffffffffff1681526020016040518060400160405280600781526020017f63726561746564000000000000000000000000000000000000000000000000008152508152509050806001836040516109b5919061162b565b908152602001604051809103902060008201518160000190816109d89190611b2e565b5060208201518160010190816109ee9190611b2e565b5060408201518160020155606082015181600301556080820151816004015560a0820151816005019081610a229190611b2e565b5060c08201518160060160006101000a81548173ffffffffffffffffffffffffffffffffffffffff021916908373ffffffffffffffffffffffffffffffffffffffff16021790555060e0820151816007019081610a7f9190611b2e565b50905050600282908060018154018082558091505060019003906000526020600020016000909190919091509081610ab79190611b2e565b507f359b26321ebeecad7ad0f5e72436880f30391728afdc0bdc7be26286faa3251387878787878733604051610af39796959493929190611c00565b60405180910390a150505050505050565b600181805160208101820180518482526020830160208501208183528095505050505050600091509050806000018054610b3d906115be565b80601f0160208091040260200160405190810160405280929190818152602001828054610b69906115be565b8015610bb65780601f10610b8b57610100808354040283529160200191610bb6565b820191906000526020600020905b815481529060010190602001808311610b9957829003601f168201915b505050505090806001018054610bcb906115be565b80601f0160208091040260200160405190810160405280929190818152602001828054610bf7906115be565b8015610c445780601f10610c1957610100808354040283529160200191610c44565b820191906000526020600020905b815481529060010190602001808311610c2757829003601f168201915b505050505090806002015490806003015490806004015490806005018054610c6b906115be565b80601f0160208091040260200160405190810160405280929190818152602001828054610c97906115be565b8015610ce45780601f10610cb957610100808354040283529160200191610ce4565b820191906000526020600020905b815481529060010190602001808311610cc757829003601f168201915b5050505050908060060160009054906101000a900473ffffffffffffffffffffffffffffffffffffffff1690806007018054610d1f906115be565b80601f0160208091040260200160405190810160405280929190818152602001828054610d4b906115be565b8015610d985780601f10610d6d57610100808354040283529160200191610d98565b820191906000526020600020905b815481529060010190602001808311610d7b57829003601f168201915b5050505050905088565b610daa610e28565b600073ffffffffffffffffffffffffffffffffffffffff168173ffffffffffffffffffffffffffffffffffffffff1603610e1c5760006040517f1e4fbdf7000000000000000000000000000000000000000000000000000000008152600401610e13919061143a565b60405180910390fd5b610e2581610eaf565b50565b610e30610f73565b73ffffffffffffffffffffffffffffffffffffffff16610e4e6106f1565b73ffffffffffffffffffffffffffffffffffffffff1614610ead57610e71610f73565b6040517f118cdaa7000000000000000000000000000000000000000000000000000000008152600401610ea4919061143a565b60405180910390fd5b565b60008060009054906101000a900473ffffffffffffffffffffffffffffffffffffffff169050816000806101000a81548173ffffffffffffffffffffffffffffffffffffffff021916908373ffffffffffffffffffffffffffffffffffffffff1602179055508173ffffffffffffffffffffffffffffffffffffffff168173ffffffffffffffffffffffffffffffffffffffff167f8be0079c531659141344cd1fd0a4f28419497f9722a3daafe3b4186f6b6457e060405160405180910390a35050565b600033905090565b6000604051905090565b600080fd5b600080fd5b6000819050919050565b610fa281610f8f565b8114610fad57600080fd5b50565b600081359050610fbf81610f99565b92915050565b600060208284031215610fdb57610fda610f85565b5b6000610fe984828501610fb0565b91505092915050565b600081519050919050565b600082825260208201905092915050565b60005b8381101561102c578082015181840152602081019050611011565b60008484015250505050565b6000601f19601f8301169050919050565b600061105482610ff2565b61105e8185610ffd565b935061106e81856020860161100e565b61107781611038565b840191505092915050565b6000602082019050818103600083015261109c8184611049565b905092915050565b600081519050919050565b600082825260208201905092915050565b6000819050602082019050919050565b600082825260208201905092915050565b60006110ec82610ff2565b6110f681856110d0565b935061110681856020860161100e565b61110f81611038565b840191505092915050565b600061112683836110e1565b905092915050565b6000602082019050919050565b6000611146826110a4565b61115081856110af565b935083602082028501611162856110c0565b8060005b8581101561119e578484038952815161117f858261111a565b945061118a8361112e565b925060208a01995050600181019050611166565b50829750879550505050505092915050565b600060208201905081810360008301526111ca818461113b565b905092915050565b600080fd5b600080fd5b7f4e487b7100000000000000000000000000000000000000000000000000000000600052604160045260246000fd5b61121482611038565b810181811067ffffffffffffffff82111715611233576112326111dc565b5b80604052505050565b6000611246610f7b565b9050611252828261120b565b919050565b600067ffffffffffffffff821115611272576112716111dc565b5b61127b82611038565b9050602081019050919050565b82818337600083830152505050565b60006112aa6112a584611257565b61123c565b9050828152602081018484840111156112c6576112c56111d7565b5b6112d1848285611288565b509392505050565b600082601f8301126112ee576112ed6111d2565b5b81356112fe848260208601611297565b91505092915050565b60006020828403121561131d5761131c610f85565b5b600082013567ffffffffffffffff81111561133b5761133a610f8a565b5b611347848285016112d9565b91505092915050565b61135981610f8f565b82525050565b600073ffffffffffffffffffffffffffffffffffffffff82169050919050565b600061138a8261135f565b9050919050565b61139a8161137f565b82525050565b60006101008201905081810360008301526113bb818b611049565b905081810360208301526113cf818a611049565b90506113de6040830189611350565b6113eb6060830188611350565b6113f86080830187611350565b81810360a083015261140a8186611049565b905061141960c0830185611391565b81810360e083015261142b8184611049565b90509998505050505050505050565b600060208201905061144f6000830184611391565b92915050565b60008060008060008060c0878903121561147257611471610f85565b5b600087013567ffffffffffffffff8111156114905761148f610f8a565b5b61149c89828a016112d9565b965050602087013567ffffffffffffffff8111156114bd576114bc610f8a565b5b6114c989828a016112d9565b95505060406114da89828a01610fb0565b94505060606114eb89828a01610fb0565b93505060806114fc89828a01610fb0565b92505060a087013567ffffffffffffffff81111561151d5761151c610f8a565b5b61152989828a016112d9565b9150509295509295509295565b61153f8161137f565b811461154a57600080fd5b50565b60008135905061155c81611536565b92915050565b60006020828403121561157857611577610f85565b5b60006115868482850161154d565b91505092915050565b7f4e487b7100000000000000000000000000000000000000000000000000000000600052602260045260246000fd5b600060028204905060018216806115d657607f821691505b6020821081036115e9576115e861158f565b5b50919050565b600081905092915050565b600061160582610ff2565b61160f81856115ef565b935061161f81856020860161100e565b80840191505092915050565b600061163782846115fa565b915081905092915050565b7f44727567206e6f7420666f756e64000000000000000000000000000000000000600082015250565b6000611678600e83610ffd565b915061168382611642565b602082019050919050565b600060208201905081810360008301526116a78161166b565b9050919050565b7f4e616d652063616e6e6f7420626520656d707479000000000000000000000000600082015250565b60006116e4601483610ffd565b91506116ef826116ae565b602082019050919050565b60006020820190508181036000830152611713816116d7565b9050919050565b7f42617463682063616e6e6f7420626520656d7074790000000000000000000000600082015250565b6000611750601583610ffd565b915061175b8261171a565b602082019050919050565b6000602082019050818103600083015261177f81611743565b9050919050565b7f5175616e74697479206d7573742062652067726561746572207468616e203000600082015250565b60006117bc601f83610ffd565b91506117c782611786565b602082019050919050565b600060208201905081810360008301526117eb816117af565b9050919050565b7f4578706972792064617465206d757374206265206166746572206d616e75666160008201527f63747572696e6720646174650000000000000000000000000000000000000000602082015250565b600061184e602c83610ffd565b9150611859826117f2565b604082019050919050565b6000602082019050818103600083015261187d81611841565b9050919050565b7f426172636f64652063616e6e6f7420626520656d707479000000000000000000600082015250565b60006118ba601783610ffd565b91506118c582611884565b602082019050919050565b600060208201905081810360008301526118e9816118ad565b9050919050565b7f447275672077697468207468697320626172636f646520616c7265616479206560008201527f7869737473000000000000000000000000000000000000000000000000000000602082015250565b600061194c602583610ffd565b9150611957826118f0565b604082019050919050565b6000602082019050818103600083015261197b8161193f565b9050919050565b60008190508160005260206000209050919050565b60006020601f8301049050919050565b600082821b905092915050565b6000600883026119e47fffffffffffffffffffffffffffffffffffffffffffffffffffffffffffffffff826119a7565b6119ee86836119a7565b95508019841693508086168417925050509392505050565b6000819050919050565b6000611a2b611a26611a2184610f8f565b611a06565b610f8f565b9050919050565b6000819050919050565b611a4583611a10565b611a59611a5182611a32565b8484546119b4565b825550505050565b600090565b611a6e611a61565b611a79818484611a3c565b505050565b5b81811015611a9d57611a92600082611a66565b600181019050611a7f565b5050565b601f821115611ae257611ab381611982565b611abc84611997565b81016020851015611acb578190505b611adf611ad785611997565b830182611a7e565b50505b505050565b600082821c905092915050565b6000611b0560001984600802611ae7565b1980831691505092915050565b6000611b1e8383611af4565b9150826002028217905092915050565b611b3782610ff2565b67ffffffffffffffff811115611b5057611b4f6111dc565b5b611b5a82546115be565b611b65828285611aa1565b600060209050601f831160018114611b985760008415611b86578287015190505b611b908582611b12565b865550611bf8565b601f198416611ba686611982565b60005b82811015611bce57848901518255600182019150602085019450602081019050611ba9565b86831015611beb5784890151611be7601f891682611af4565b8355505b6001600288020188555050505b505050505050565b600060e0820190508181036000830152611c1a818a611049565b90508181036020830152611c2e8189611049565b9050611c3d6040830188611350565b611c4a6060830187611350565b611c576080830186611350565b81810360a0830152611c698185611049565b9050611c7860c0830184611391565b9897505050505050505056fea2646970667358221220ea045d0d8bd5806be15c696ecdbe7718a9bdea035ddbcfcc513f3ea79317e25764736f6c63430008140033",
  "linkReferences": {},
  "deployedLinkReferences": {}
}