{
    "_format": "hh-sol-artifact-1",
    "contractName": "MedicineTracking",
    "sourceName": "contracts/MedicineTracking.sol",
    "abi": [
        {
            "inputs": [],
            "stateMutability": "nonpayable",
            "type": "constructor"
        },
        {
            "anonymous": false,
            "inputs": [
                {
                    "indexed": true,
                    "internalType": "uint256",
                    "name": "batchId",
                    "type": "uint256"
                },
                {
                    "indexed": false,
                    "internalType": "uint256",
                    "name": "drugId",
                    "type": "uint256"
                },
                {
                    "indexed": false,
                    "internalType": "uint256",
                    "name": "quantity",
                    "type": "uint256"
                }
            ],
            "name": "BatchCreated",
            "type": "event"
        },
        {
            "anonymous": false,
            "inputs": [
                {
                    "indexed": true,
                    "internalType": "uint256",
                    "name": "drugId",
                    "type": "uint256"
                },
                {
                    "indexed": false,
                    "internalType": "string",
                    "name": "name",
                    "type": "string"
                },
                {
                    "indexed": false,
                    "internalType": "string",
                    "name": "batchNumber",
                    "type": "string"
                },
                {
                    "indexed": false,
                    "internalType": "string",
                    "name": "barcode",
                    "type": "string"
                }
            ],
            "name": "DrugCreated",
            "type": "event"
        },
        {
            "anonymous": false,
            "inputs": [
                {
                    "indexed": true,
                    "internalType": "address",
                    "name": "previousOwner",
                    "type": "address"
                },
                {
                    "indexed": true,
                    "internalType": "address",
                    "name": "newOwner",
                    "type": "address"
                }
            ],
            "name": "OwnershipTransferred",
            "type": "event"
        },
        {
            "anonymous": false,
            "inputs": [
                {
                    "indexed": true,
                    "internalType": "uint256",
                    "name": "shipmentId",
                    "type": "uint256"
                },
                {
                    "indexed": false,
                    "internalType": "uint256",
                    "name": "batchId",
                    "type": "uint256"
                },
                {
                    "indexed": false,
                    "internalType": "address",
                    "name": "distributor",
                    "type": "address"
                }
            ],
            "name": "ShipmentCreated",
            "type": "event"
        },
        {
            "anonymous": false,
            "inputs": [
                {
                    "indexed": true,
                    "internalType": "uint256",
                    "name": "shipmentId",
                    "type": "uint256"
                }
            ],
            "name": "ShipmentDelivered",
            "type": "event"
        },
        {
            "inputs": [
                {
                    "internalType": "string",
                    "name": "",
                    "type": "string"
                }
            ],
            "name": "barcodeToDrugId",
            "outputs": [
                {
                    "internalType": "uint256",
                    "name": "",
                    "type": "uint256"
                }
            ],
            "stateMutability": "view",
            "type": "function"
        },
        {
            "inputs": [],
            "name": "batchCount",
            "outputs": [
                {
                    "internalType": "uint256",
                    "name": "",
                    "type": "uint256"
                }
            ],
            "stateMutability": "view",
            "type": "function"
        },
        {
            "inputs": [
                {
                    "internalType": "uint256",
                    "name": "",
                    "type": "uint256"
                }
            ],
            "name": "batches",
            "outputs": [
                {
                    "internalType": "uint256",
                    "name": "drugId",
                    "type": "uint256"
                },
                {
                    "internalType": "uint256",
                    "name": "quantity",
                    "type": "uint256"
                },
                {
                    "internalType": "uint256",
                    "name": "status",
                    "type": "uint256"
                },
                {
                    "internalType": "address",
                    "name": "currentOwner",
                    "type": "address"
                }
            ],
            "stateMutability": "view",
            "type": "function"
        },
        {
            "inputs": [
                {
                    "internalType": "uint256",
                    "name": "_drugId",
                    "type": "uint256"
                },
                {
                    "internalType": "uint256",
                    "name": "_quantity",
                    "type": "uint256"
                }
            ],
            "name": "createBatch",
            "outputs": [],
            "stateMutability": "nonpayable",
            "type": "function"
        },
        {
            "inputs": [
                {
                    "internalType": "string",
                    "name": "_name",
                    "type": "string"
                },
                {
                    "internalType": "string",
                    "name": "_batchNumber",
                    "type": "string"
                },
                {
                    "internalType": "uint256",
                    "name": "_manufacturingDate",
                    "type": "uint256"
                },
                {
                    "internalType": "uint256",
                    "name": "_expiryDate",
                    "type": "uint256"
                },
                {
                    "internalType": "string",
                    "name": "_barcode",
                    "type": "string"
                }
            ],
            "name": "createDrug",
            "outputs": [],
            "stateMutability": "nonpayable",
            "type": "function"
        },
        {
            "inputs": [
                {
                    "internalType": "uint256",
                    "name": "_batchId",
                    "type": "uint256"
                },
                {
                    "internalType": "uint256",
                    "name": "_quantity",
                    "type": "uint256"
                },
                {
                    "internalType": "address",
                    "name": "_distributor",
                    "type": "address"
                },
                {
                    "internalType": "string",
                    "name": "_destination",
                    "type": "string"
                }
            ],
            "name": "createShipment",
            "outputs": [],
            "stateMutability": "nonpayable",
            "type": "function"
        },
        {
            "inputs": [],
            "name": "drugCount",
            "outputs": [
                {
                    "internalType": "uint256",
                    "name": "",
                    "type": "uint256"
                }
            ],
            "stateMutability": "view",
            "type": "function"
        },
        {
            "inputs": [
                {
                    "internalType": "uint256",
                    "name": "",
                    "type": "uint256"
                }
            ],
            "name": "drugs",
            "outputs": [
                {
                    "internalType": "string",
                    "name": "name",
                    "type": "string"
                },
                {
                    "internalType": "string",
                    "name": "batchNumber",
                    "type": "string"
                },
                {
                    "internalType": "uint256",
                    "name": "manufacturingDate",
                    "type": "uint256"
                },
                {
                    "internalType": "uint256",
                    "name": "expiryDate",
                    "type": "uint256"
                },
                {
                    "internalType": "string",
                    "name": "barcode",
                    "type": "string"
                },
                {
                    "internalType": "address",
                    "name": "manufacturer",
                    "type": "address"
                }
            ],
            "stateMutability": "view",
            "type": "function"
        },
        {
            "inputs": [
                {
                    "internalType": "uint256",
                    "name": "_shipmentId",
                    "type": "uint256"
                }
            ],
            "name": "markShipmentDelivered",
            "outputs": [],
            "stateMutability": "nonpayable",
            "type": "function"
        },
        {
            "inputs": [],
            "name": "owner",
            "outputs": [
                {
                    "internalType": "address",
                    "name": "",
                    "type": "address"
                }
            ],
            "stateMutability": "view",
            "type": "function"
        },
        {
            "inputs": [],
            "name": "renounceOwnership",
            "outputs": [],
            "stateMutability": "nonpayable",
            "type": "function"
        },
        {
            "inputs": [],
            "name": "shipmentCount",
            "outputs": [
                {
                    "internalType": "uint256",
                    "name": "",
                    "type": "uint256"
                }
            ],
            "stateMutability": "view",
            "type": "function"
        },
        {
            "inputs": [
                {
                    "internalType": "uint256",
                    "name": "",
                    "type": "uint256"
                }
            ],
            "name": "shipments",
            "outputs": [
                {
                    "internalType": "uint256",
                    "name": "batchId",
                    "type": "uint256"
                },
                {
                    "internalType": "uint256",
                    "name": "quantity",
                    "type": "uint256"
                },
                {
                    "internalType": "address",
                    "name": "distributor",
                    "type": "address"
                },
                {
                    "internalType": "string",
                    "name": "destination",
                    "type": "string"
                },
                {
                    "internalType": "uint256",
                    "name": "status",
                    "type": "uint256"
                }
            ],
            "stateMutability": "view",
            "type": "function"
        },
        {
            "inputs": [
                {
                    "internalType": "address",
                    "name": "newOwner",
                    "type": "address"
                }
            ],
            "name": "transferOwnership",
            "outputs": [],
            "stateMutability": "nonpayable",
            "type": "function"
        },
        {
            "inputs": [
                {
                    "internalType": "string",
                    "name": "_barcode",
                    "type": "string"
                }
            ],
            "name": "verifyDrug",
            "outputs": [
                {
                    "components": [
                        {
                            "internalType": "string",
                            "name": "name",
                            "type": "string"
                        },
                        {
                            "internalType": "string",
                            "name": "batchNumber",
                            "type": "string"
                        },
                        {
                            "internalType": "uint256",
                            "name": "manufacturingDate",
                            "type": "uint256"
                        },
                        {
                            "internalType": "uint256",
                            "name": "expiryDate",
                            "type": "uint256"
                        },
                        {
                            "internalType": "string",
                            "name": "barcode",
                            "type": "string"
                        },
                        {
                            "internalType": "address",
                            "name": "manufacturer",
                            "type": "address"
                        }
                    ],
                    "internalType": "struct MedicineTracking.Drug",
                    "name": "",
                    "type": "tuple"
                },
                {
                    "components": [
                        {
                            "internalType": "uint256",
                            "name": "drugId",
                            "type": "uint256"
                        },
                        {
                            "internalType": "uint256",
                            "name": "quantity",
                            "type": "uint256"
                        },
                        {
                            "internalType": "uint256",
                            "name": "status",
                            "type": "uint256"
                        },
                        {
                            "internalType": "address",
                            "name": "currentOwner",
                            "type": "address"
                        }
                    ],
                    "internalType": "struct MedicineTracking.Batch",
                    "name": "",
                    "type": "tuple"
                }
            ],
            "stateMutability": "view",
            "type": "function"
        }
    ],
    "bytecode": "0x608060405234801562000010575f80fd5b5062000031620000256200004860201b60201c565b6200004f60201b60201c565b62000042336200011060201b60201c565b6200036f565b5f33905090565b5f805f9054906101000a900473ffffffffffffffffffffffffffffffffffffffff169050815f806101000a81548173ffffffffffffffffffffffffffffffffffffffff021916908373ffffffffffffffffffffffffffffffffffffffff1602179055508173ffffffffffffffffffffffffffffffffffffffff168173ffffffffffffffffffffffffffffffffffffffff167f8be0079c531659141344cd1fd0a4f28419497f9722a3daafe3b4186f6b6457e060405160405180910390a35050565b62000120620001a560201b60201c565b5f73ffffffffffffffffffffffffffffffffffffffff168173ffffffffffffffffffffffffffffffffffffffff160362000191576040517f08c379a00000000000000000000000000000000000000000000000000000000081526004016200018890620002e1565b60405180910390fd5b620001a2816200004f60201b60201c565b50565b620001b56200004860201b60201c565b73ffffffffffffffffffffffffffffffffffffffff16620001db6200023660201b60201c565b73ffffffffffffffffffffffffffffffffffffffff161462000234576040517f08c379a00000000000000000000000000000000000000000000000000000000081526004016200022b906200034f565b60405180910390fd5b565b5f805f9054906101000a900473ffffffffffffffffffffffffffffffffffffffff16905090565b5f82825260208201905092915050565b7f4f776e61626c653a206e6577206f776e657220697320746865207a65726f20615f8201527f6464726573730000000000000000000000000000000000000000000000000000602082015250565b5f620002c96026836200025d565b9150620002d6826200026d565b604082019050919050565b5f6020820190508181035f830152620002fa81620002bb565b9050919050565b7f4f776e61626c653a2063616c6c6572206973206e6f7420746865206f776e65725f82015250565b5f620003376020836200025d565b9150620003448262000301565b602082019050919050565b5f6020820190508181035f830152620003688162000329565b9050919050565b6122bc806200037d5f395ff3fe608060405234801561000f575f80fd5b50600436106100f3575f3560e01c806392a2d84611610095578063b32c4d8d11610064578063b32c4d8d14610262578063ddfa5f5f14610295578063f2fde38b146102b1578063fca5e61e146102cd576100f3565b806392a2d846146101dc57806399e2d0ba146101f85780639acc899314610228578063aace20b714610244576100f3565b80633b7b0a74116100d15780633b7b0a7414610165578063715018a6146101965780637577ca37146101a05780638da5cb5b146101be576100f3565b806306f13056146100f75780630dadb55a146101155780632ac08a9314610131575b5f80fd5b6100ff610302565b60405161010c9190611331565b60405180910390f35b61012f600480360381019061012a919061151b565b610308565b005b61014b6004803603810190610146919061159b565b61053b565b60405161015c95949392919061164f565b60405180910390f35b61017f600480360381019061017a91906116a7565b610612565b60405161018d92919061183b565b60405180910390f35b61019e6109a1565b005b6101a86109b4565b6040516101b59190611331565b60405180910390f35b6101c66109ba565b6040516101d39190611869565b60405180910390f35b6101f660048036038101906101f19190611882565b6109e1565b005b610212600480360381019061020d91906116a7565b610b34565b60405161021f9190611331565b60405180910390f35b610242600480360381019061023d919061159b565b610b61565b005b61024c610d18565b6040516102599190611331565b60405180910390f35b61027c6004803603810190610277919061159b565b610d1e565b60405161028c94939291906118c0565b60405180910390f35b6102af60048036038101906102aa9190611903565b610d69565b005b6102cb60048036038101906102c691906119ce565b610ee5565b005b6102e760048036038101906102e2919061159b565b610f67565b6040516102f9969594939291906119f9565b60405180910390f35b60065481565b610310611150565b600654841115610355576040517f08c379a000000000000000000000000000000000000000000000000000000000815260040161034c90611ab7565b60405180910390fd5b5f60025f8681526020019081526020015f2060020154146103ab576040517f08c379a00000000000000000000000000000000000000000000000000000000081526004016103a290611b1f565b60405180910390fd5b60075f8154809291906103bd90611b6a565b91905055506040518060a001604052808581526020018481526020018373ffffffffffffffffffffffffffffffffffffffff1681526020018281526020015f81525060035f60075481526020019081526020015f205f820151815f0155602082015181600101556040820151816002015f6101000a81548173ffffffffffffffffffffffffffffffffffffffff021916908373ffffffffffffffffffffffffffffffffffffffff160217905550606082015181600301908161047f9190611dab565b5060808201518160040155905050600160025f8681526020019081526020015f20600201819055508160025f8681526020019081526020015f206003015f6101000a81548173ffffffffffffffffffffffffffffffffffffffff021916908373ffffffffffffffffffffffffffffffffffffffff1602179055506007547f3783453250cbf70f2ba1b0d0fc84cd2dcef10cb27257adaffd48a69aa3d9c208858460405161052d929190611e7a565b60405180910390a250505050565b6003602052805f5260405f205f91509050805f015490806001015490806002015f9054906101000a900473ffffffffffffffffffffffffffffffffffffffff169080600301805461058b90611bde565b80601f01602080910402602001604051908101604052809291908181526020018280546105b790611bde565b80156106025780601f106105d957610100808354040283529160200191610602565b820191905f5260205f20905b8154815290600101906020018083116105e557829003601f168201915b5050505050908060040154905085565b61061a611296565b6106226112df565b5f6004846040516106339190611edb565b90815260200160405180910390205490505f8103610686576040517f08c379a000000000000000000000000000000000000000000000000000000000815260040161067d90611f3b565b60405180910390fd5b5f60015f8381526020019081526020015f206040518060c00160405290815f820180546106b290611bde565b80601f01602080910402602001604051908101604052809291908181526020018280546106de90611bde565b80156107295780601f1061070057610100808354040283529160200191610729565b820191905f5260205f20905b81548152906001019060200180831161070c57829003601f168201915b5050505050815260200160018201805461074290611bde565b80601f016020809104026020016040519081016040528092919081815260200182805461076e90611bde565b80156107b95780601f10610790576101008083540402835291602001916107b9565b820191905f5260205f20905b81548152906001019060200180831161079c57829003601f168201915b5050505050815260200160028201548152602001600382015481526020016004820180546107e690611bde565b80601f016020809104026020016040519081016040528092919081815260200182805461081290611bde565b801561085d5780601f106108345761010080835404028352916020019161085d565b820191905f5260205f20905b81548152906001019060200180831161084057829003601f168201915b50505050508152602001600582015f9054906101000a900473ffffffffffffffffffffffffffffffffffffffff1673ffffffffffffffffffffffffffffffffffffffff1673ffffffffffffffffffffffffffffffffffffffff168152505090506108c56112df565b5f600190505b6006548111610992578360025f8381526020019081526020015f205f01540361097f5760025f8281526020019081526020015f206040518060800160405290815f82015481526020016001820154815260200160028201548152602001600382015f9054906101000a900473ffffffffffffffffffffffffffffffffffffffff1673ffffffffffffffffffffffffffffffffffffffff1673ffffffffffffffffffffffffffffffffffffffff168152505091505b808061098a90611b6a565b9150506108cb565b50818194509450505050915091565b6109a9611150565b6109b25f6111ce565b565b60055481565b5f805f9054906101000a900473ffffffffffffffffffffffffffffffffffffffff16905090565b6109e9611150565b600554821115610a2e576040517f08c379a0000000000000000000000000000000000000000000000000000000008152600401610a2590611fa3565b60405180910390fd5b60065f815480929190610a4090611b6a565b919050555060405180608001604052808381526020018281526020015f81526020013373ffffffffffffffffffffffffffffffffffffffff1681525060025f60065481526020019081526020015f205f820151815f015560208201518160010155604082015181600201556060820151816003015f6101000a81548173ffffffffffffffffffffffffffffffffffffffff021916908373ffffffffffffffffffffffffffffffffffffffff1602179055509050506006547f07978a2d36cf05f633498b1178e77417882ed002fa4dae7c3d9e4dc989fe2c848383604051610b28929190611fc1565b60405180910390a25050565b6004818051602081018201805184825260208301602085012081835280955050505050505f915090505481565b600754811115610ba6576040517f08c379a0000000000000000000000000000000000000000000000000000000008152600401610b9d90612032565b60405180910390fd5b5f60035f8381526020019081526020015f206004015414610bfc576040517f08c379a0000000000000000000000000000000000000000000000000000000008152600401610bf39061209a565b60405180910390fd5b60035f8281526020019081526020015f206002015f9054906101000a900473ffffffffffffffffffffffffffffffffffffffff1673ffffffffffffffffffffffffffffffffffffffff163373ffffffffffffffffffffffffffffffffffffffff1614610c9d576040517f08c379a0000000000000000000000000000000000000000000000000000000008152600401610c9490612128565b60405180910390fd5b600160035f8381526020019081526020015f20600401819055505f60035f8381526020019081526020015f205f015490506002805f8381526020019081526020015f2060020181905550817fb38ad34cd662cdc85d2f4726f158113d43072434f3f9f9a4bb60d7ee6685f17b60405160405180910390a25050565b60075481565b6002602052805f5260405f205f91509050805f015490806001015490806002015490806003015f9054906101000a900473ffffffffffffffffffffffffffffffffffffffff16905084565b610d71611150565b60055f815480929190610d8390611b6a565b91905055506040518060c001604052808681526020018581526020018481526020018381526020018281526020013373ffffffffffffffffffffffffffffffffffffffff1681525060015f60055481526020019081526020015f205f820151815f019081610df19190611dab565b506020820151816001019081610e079190611dab565b5060408201518160020155606082015181600301556080820151816004019081610e319190611dab565b5060a0820151816005015f6101000a81548173ffffffffffffffffffffffffffffffffffffffff021916908373ffffffffffffffffffffffffffffffffffffffff160217905550905050600554600482604051610e8e9190611edb565b9081526020016040518091039020819055506005547fd34dcd2c83e861957b28644390119cafe7033d9c73c4d591ec10ceda10680570868684604051610ed693929190612146565b60405180910390a25050505050565b610eed611150565b5f73ffffffffffffffffffffffffffffffffffffffff168173ffffffffffffffffffffffffffffffffffffffff1603610f5b576040517f08c379a0000000000000000000000000000000000000000000000000000000008152600401610f5290612200565b60405180910390fd5b610f64816111ce565b50565b6001602052805f5260405f205f91509050805f018054610f8690611bde565b80601f0160208091040260200160405190810160405280929190818152602001828054610fb290611bde565b8015610ffd5780601f10610fd457610100808354040283529160200191610ffd565b820191905f5260205f20905b815481529060010190602001808311610fe057829003601f168201915b50505050509080600101805461101290611bde565b80601f016020809104026020016040519081016040528092919081815260200182805461103e90611bde565b80156110895780601f1061106057610100808354040283529160200191611089565b820191905f5260205f20905b81548152906001019060200180831161106c57829003601f168201915b5050505050908060020154908060030154908060040180546110aa90611bde565b80601f01602080910402602001604051908101604052809291908181526020018280546110d690611bde565b80156111215780601f106110f857610100808354040283529160200191611121565b820191905f5260205f20905b81548152906001019060200180831161110457829003601f168201915b505050505090806005015f9054906101000a900473ffffffffffffffffffffffffffffffffffffffff16905086565b61115861128f565b73ffffffffffffffffffffffffffffffffffffffff166111766109ba565b73ffffffffffffffffffffffffffffffffffffffff16146111cc576040517f08c379a00000000000000000000000000000000000000000000000000000000081526004016111c390612268565b60405180910390fd5b565b5f805f9054906101000a900473ffffffffffffffffffffffffffffffffffffffff169050815f806101000a81548173ffffffffffffffffffffffffffffffffffffffff021916908373ffffffffffffffffffffffffffffffffffffffff1602179055508173ffffffffffffffffffffffffffffffffffffffff168173ffffffffffffffffffffffffffffffffffffffff167f8be0079c531659141344cd1fd0a4f28419497f9722a3daafe3b4186f6b6457e060405160405180910390a35050565b5f33905090565b6040518060c0016040528060608152602001606081526020015f81526020015f8152602001606081526020015f73ffffffffffffffffffffffffffffffffffffffff1681525090565b60405180608001604052805f81526020015f81526020015f81526020015f73ffffffffffffffffffffffffffffffffffffffff1681525090565b5f819050919050565b61132b81611319565b82525050565b5f6020820190506113445f830184611322565b92915050565b5f604051905090565b5f80fd5b5f80fd5b61136481611319565b811461136e575f80fd5b50565b5f8135905061137f8161135b565b92915050565b5f73ffffffffffffffffffffffffffffffffffffffff82169050919050565b5f6113ae82611385565b9050919050565b6113be816113a4565b81146113c8575f80fd5b50565b5f813590506113d9816113b5565b92915050565b5f80fd5b5f80fd5b5f601f19601f8301169050919050565b7f4e487b71000000000000000000000000000000000000000000000000000000005f52604160045260245ffd5b61142d826113e7565b810181811067ffffffffffffffff8211171561144c5761144b6113f7565b5b80604052505050565b5f61145e61134a565b905061146a8282611424565b919050565b5f67ffffffffffffffff821115611489576114886113f7565b5b611492826113e7565b9050602081019050919050565b828183375f83830152505050565b5f6114bf6114ba8461146f565b611455565b9050828152602081018484840111156114db576114da6113e3565b5b6114e684828561149f565b509392505050565b5f82601f830112611502576115016113df565b5b81356115128482602086016114ad565b91505092915050565b5f805f806080858703121561153357611532611353565b5b5f61154087828801611371565b945050602061155187828801611371565b9350506040611562878288016113cb565b925050606085013567ffffffffffffffff81111561158357611582611357565b5b61158f878288016114ee565b91505092959194509250565b5f602082840312156115b0576115af611353565b5b5f6115bd84828501611371565b91505092915050565b6115cf816113a4565b82525050565b5f81519050919050565b5f82825260208201905092915050565b5f5b8381101561160c5780820151818401526020810190506115f1565b5f8484015250505050565b5f611621826115d5565b61162b81856115df565b935061163b8185602086016115ef565b611644816113e7565b840191505092915050565b5f60a0820190506116625f830188611322565b61166f6020830187611322565b61167c60408301866115c6565b818103606083015261168e8185611617565b905061169d6080830184611322565b9695505050505050565b5f602082840312156116bc576116bb611353565b5b5f82013567ffffffffffffffff8111156116d9576116d8611357565b5b6116e5848285016114ee565b91505092915050565b5f82825260208201905092915050565b5f611708826115d5565b61171281856116ee565b93506117228185602086016115ef565b61172b816113e7565b840191505092915050565b61173f81611319565b82525050565b61174e816113a4565b82525050565b5f60c083015f8301518482035f86015261176e82826116fe565b9150506020830151848203602086015261178882826116fe565b915050604083015161179d6040860182611736565b5060608301516117b06060860182611736565b50608083015184820360808601526117c882826116fe565b91505060a08301516117dd60a0860182611745565b508091505092915050565b608082015f8201516117fc5f850182611736565b50602082015161180f6020850182611736565b5060408201516118226040850182611736565b5060608201516118356060850182611745565b50505050565b5f60a0820190508181035f8301526118538185611754565b905061186260208301846117e8565b9392505050565b5f60208201905061187c5f8301846115c6565b92915050565b5f806040838503121561189857611897611353565b5b5f6118a585828601611371565b92505060206118b685828601611371565b9150509250929050565b5f6080820190506118d35f830187611322565b6118e06020830186611322565b6118ed6040830185611322565b6118fa60608301846115c6565b95945050505050565b5f805f805f60a0868803121561191c5761191b611353565b5b5f86013567ffffffffffffffff81111561193957611938611357565b5b611945888289016114ee565b955050602086013567ffffffffffffffff81111561196657611965611357565b5b611972888289016114ee565b945050604061198388828901611371565b935050606061199488828901611371565b925050608086013567ffffffffffffffff8111156119b5576119b4611357565b5b6119c1888289016114ee565b9150509295509295909350565b5f602082840312156119e3576119e2611353565b5b5f6119f0848285016113cb565b91505092915050565b5f60c0820190508181035f830152611a118189611617565b90508181036020830152611a258188611617565b9050611a346040830187611322565b611a416060830186611322565b8181036080830152611a538185611617565b9050611a6260a08301846115c6565b979650505050505050565b7f426174636820646f6573206e6f742065786973740000000000000000000000005f82015250565b5f611aa16014836115df565b9150611aac82611a6d565b602082019050919050565b5f6020820190508181035f830152611ace81611a95565b9050919050565b7f426174636820616c7265616479207368697070656400000000000000000000005f82015250565b5f611b096015836115df565b9150611b1482611ad5565b602082019050919050565b5f6020820190508181035f830152611b3681611afd565b9050919050565b7f4e487b71000000000000000000000000000000000000000000000000000000005f52601160045260245ffd5b5f611b7482611319565b91507fffffffffffffffffffffffffffffffffffffffffffffffffffffffffffffffff8203611ba657611ba5611b3d565b5b600182019050919050565b7f4e487b71000000000000000000000000000000000000000000000000000000005f52602260045260245ffd5b5f6002820490506001821680611bf557607f821691505b602082108103611c0857611c07611bb1565b5b50919050565b5f819050815f5260205f209050919050565b5f6020601f8301049050919050565b5f82821b905092915050565b5f60088302611c6a7fffffffffffffffffffffffffffffffffffffffffffffffffffffffffffffffff82611c2f565b611c748683611c2f565b95508019841693508086168417925050509392505050565b5f819050919050565b5f611caf611caa611ca584611319565b611c8c565b611319565b9050919050565b5f819050919050565b611cc883611c95565b611cdc611cd482611cb6565b848454611c3b565b825550505050565b5f90565b611cf0611ce4565b611cfb818484611cbf565b505050565b5b81811015611d1e57611d135f82611ce8565b600181019050611d01565b5050565b601f821115611d6357611d3481611c0e565b611d3d84611c20565b81016020851015611d4c578190505b611d60611d5885611c20565b830182611d00565b50505b505050565b5f82821c905092915050565b5f611d835f1984600802611d68565b1980831691505092915050565b5f611d9b8383611d74565b9150826002028217905092915050565b611db4826115d5565b67ffffffffffffffff811115611dcd57611dcc6113f7565b5b611dd78254611bde565b611de2828285611d22565b5f60209050601f831160018114611e13575f8415611e01578287015190505b611e0b8582611d90565b865550611e72565b601f198416611e2186611c0e565b5f5b82811015611e4857848901518255600182019150602085019450602081019050611e23565b86831015611e655784890151611e61601f891682611d74565b8355505b6001600288020188555050505b505050505050565b5f604082019050611e8d5f830185611322565b611e9a60208301846115c6565b9392505050565b5f81905092915050565b5f611eb5826115d5565b611ebf8185611ea1565b9350611ecf8185602086016115ef565b80840191505092915050565b5f611ee68284611eab565b915081905092915050565b7f44727567206e6f7420666f756e640000000000000000000000000000000000005f82015250565b5f611f25600e836115df565b9150611f3082611ef1565b602082019050919050565b5f6020820190508181035f830152611f5281611f19565b9050919050565b7f4472756720646f6573206e6f74206578697374000000000000000000000000005f82015250565b5f611f8d6013836115df565b9150611f9882611f59565b602082019050919050565b5f6020820190508181035f830152611fba81611f81565b9050919050565b5f604082019050611fd45f830185611322565b611fe16020830184611322565b9392505050565b7f536869706d656e7420646f6573206e6f742065786973740000000000000000005f82015250565b5f61201c6017836115df565b915061202782611fe8565b602082019050919050565b5f6020820190508181035f83015261204981612010565b9050919050565b7f536869706d656e7420616c72656164792064656c6976657265640000000000005f82015250565b5f612084601a836115df565b915061208f82612050565b602082019050919050565b5f6020820190508181035f8301526120b181612078565b9050919050565b7f4f6e6c79206469737472696275746f722063616e206d61726b2061732064656c5f8201527f6976657265640000000000000000000000000000000000000000000000000000602082015250565b5f6121126026836115df565b915061211d826120b8565b604082019050919050565b5f6020820190508181035f83015261213f81612106565b9050919050565b5f6060820190508181035f83015261215e8186611617565b905081810360208301526121728185611617565b905081810360408301526121868184611617565b9050949350505050565b7f4f776e61626c653a206e6577206f776e657220697320746865207a65726f20615f8201527f6464726573730000000000000000000000000000000000000000000000000000602082015250565b5f6121ea6026836115df565b91506121f582612190565b604082019050919050565b5f6020820190508181035f830152612217816121de565b9050919050565b7f4f776e61626c653a2063616c6c6572206973206e6f7420746865206f776e65725f82015250565b5f6122526020836115df565b915061225d8261221e565b602082019050919050565b5f6020820190508181035f83015261227f81612246565b905091905056fea264697066735822122085e1db046c96da77304c9d1bc4ebc4dad6cfb45550d69620c5bd41691250b8be64736f6c63430008140033",
    "linkReferences": {},
    "deployedLinkReferences": {}
}